{
  "address": "0x9fE46736679d2D9a65F0992F2272dE9f3c7fa6e0",
  "abi": [
    {
      "inputs": [
        {
          "internalType": "uint256",
          "name": "_minInput",
          "type": "uint256"
        },
        {
          "internalType": "address",
          "name": "_vrfAddress",
          "type": "address"
        },
        {
          "internalType": "bytes32",
          "name": "_gasLane",
          "type": "bytes32"
        },
        {
          "internalType": "uint64",
          "name": "_subscriptionID",
          "type": "uint64"
        },
        {
          "internalType": "uint32",
          "name": "_callbackGasLimit",
          "type": "uint32"
        }
      ],
      "stateMutability": "nonpayable",
      "type": "constructor"
    },
    {
      "inputs": [],
      "name": "RaffleFactory__NotOwner",
      "type": "error"
    },
    {
      "inputs": [
        {
          "internalType": "uint256",
          "name": "_itemPrice",
          "type": "uint256"
        },
        {
          "internalType": "uint32",
          "name": "_interval",
          "type": "uint32"
        }
      ],
      "name": "createRaffle",
      "outputs": [],
      "stateMutability": "nonpayable",
      "type": "function"
    },
    {
      "inputs": [],
      "name": "minInput",
      "outputs": [
        {
          "internalType": "uint256",
          "name": "",
          "type": "uint256"
        }
      ],
      "stateMutability": "view",
      "type": "function"
    },
    {
      "inputs": [],
      "name": "nftAddress",
      "outputs": [
        {
          "internalType": "address",
          "name": "",
          "type": "address"
        }
      ],
      "stateMutability": "view",
      "type": "function"
    },
    {
      "inputs": [],
      "name": "owner",
      "outputs": [
        {
          "internalType": "address",
          "name": "",
          "type": "address"
        }
      ],
      "stateMutability": "view",
      "type": "function"
    },
    {
      "inputs": [],
      "name": "raffleId",
      "outputs": [
        {
          "internalType": "uint256",
          "name": "",
          "type": "uint256"
        }
      ],
      "stateMutability": "view",
      "type": "function"
    },
    {
      "inputs": [
        {
          "internalType": "uint256",
          "name": "",
          "type": "uint256"
        }
      ],
      "name": "raffles",
      "outputs": [
        {
          "internalType": "address",
          "name": "",
          "type": "address"
        }
      ],
      "stateMutability": "view",
      "type": "function"
    }
  ],
  "transactionHash": "0x1c3eed259bb842fa960f681dd0a21542baed15aa597b06f633ce70601373b852",
  "args": [
    "100000000000000000",
    "0x5FbDB2315678afecb367f032d93F642f64180aa3",
    "0xd89b2bf150e3b9e13446986e571fb9cab24b13cea0a43ea20a6049a85cc807cc",
    "1",
    "500000"
  ],
  "numDeployments": 1,
  "solcInputHash": "29a6c3cb73163cbaa8a1bced3ec3bb21",
  "bytecode": "0x61016060405260006001553480156200001757600080fd5b50604051620063be380380620063be83398181016040528101906200003d9190620002fe565b3373ffffffffffffffffffffffffffffffffffffffff1660a08173ffffffffffffffffffffffffffffffffffffffff1660601b8152505084608081815250506200008c6200014560201b60201c565b73ffffffffffffffffffffffffffffffffffffffff1660c08173ffffffffffffffffffffffffffffffffffffffff1660601b815250508373ffffffffffffffffffffffffffffffffffffffff1660e08173ffffffffffffffffffffffffffffffffffffffff1660601b815250508261010081815250508167ffffffffffffffff166101208167ffffffffffffffff1660c01b815250508063ffffffff166101408163ffffffff1660e01b815250505050505050620003b4565b6000803060405162000157906200018a565b62000163919062000397565b604051809103906000f08015801562000180573d6000803e3d6000fd5b5090508091505090565b6134f48062002eca83390190565b600080fd5b6000819050919050565b620001b2816200019d565b8114620001be57600080fd5b50565b600081519050620001d281620001a7565b92915050565b600073ffffffffffffffffffffffffffffffffffffffff82169050919050565b60006200020582620001d8565b9050919050565b6200021781620001f8565b81146200022357600080fd5b50565b60008151905062000237816200020c565b92915050565b6000819050919050565b62000252816200023d565b81146200025e57600080fd5b50565b600081519050620002728162000247565b92915050565b600067ffffffffffffffff82169050919050565b620002978162000278565b8114620002a357600080fd5b50565b600081519050620002b7816200028c565b92915050565b600063ffffffff82169050919050565b620002d881620002bd565b8114620002e457600080fd5b50565b600081519050620002f881620002cd565b92915050565b600080600080600060a086880312156200031d576200031c62000198565b5b60006200032d88828901620001c1565b9550506020620003408882890162000226565b9450506040620003538882890162000261565b93505060606200036688828901620002a6565b92505060806200037988828901620002e7565b9150509295509295909350565b6200039181620001f8565b82525050565b6000602082019050620003ae600083018462000386565b92915050565b60805160a05160601c60c05160601c60e05160601c610100516101205160c01c6101405160e01c612a906200043a600039600061031d015260006102fc015260006102db0152600061025201526000818161017301526102730152600081816101ca0152818161029401526103f301526000818161014f01526102b50152612a906000f3fe60806040523480156200001157600080fd5b50600436106200006a5760003560e01c8063010930cb146200006f5780635bf8633a14620000915780635d4bc0ce14620000b3578063607e11a014620000e95780638da5cb5b1462000109578063b375603c146200012b575b600080fd5b620000796200014d565b60405162000088919062000444565b60405180910390f35b6200009b62000171565b604051620000aa9190620004a6565b60405180910390f35b620000d16004803603810190620000cb9190620004f9565b62000195565b604051620000e09190620004a6565b60405180910390f35b6200010760048036038101906200010191906200056c565b620001c8565b005b62000113620003f1565b604051620001229190620004a6565b60405180910390f35b6200013562000415565b60405162000144919062000444565b60405180910390f35b7f000000000000000000000000000000000000000000000000000000000000000081565b7f000000000000000000000000000000000000000000000000000000000000000081565b60006020528060005260406000206000915054906101000a900473ffffffffffffffffffffffffffffffffffffffff1681565b7f000000000000000000000000000000000000000000000000000000000000000073ffffffffffffffffffffffffffffffffffffffff163373ffffffffffffffffffffffffffffffffffffffff16146200024e576040517fe6c346ca00000000000000000000000000000000000000000000000000000000815260040160405180910390fd5b60007f00000000000000000000000000000000000000000000000000000000000000007f00000000000000000000000000000000000000000000000000000000000000007f00000000000000000000000000000000000000000000000000000000000000007f000000000000000000000000000000000000000000000000000000000000000086600154877f00000000000000000000000000000000000000000000000000000000000000007f00000000000000000000000000000000000000000000000000000000000000007f00000000000000000000000000000000000000000000000000000000000000006040516200034a906200041b565b6200035f9a9998979695949392919062000604565b604051809103906000f0801580156200037c573d6000803e3d6000fd5b50905080600080600154815260200190815260200160002060006101000a81548173ffffffffffffffffffffffffffffffffffffffff021916908373ffffffffffffffffffffffffffffffffffffffff16021790555060016000815480929190620003e790620006e3565b9190505550505050565b7f000000000000000000000000000000000000000000000000000000000000000081565b60015481565b612329806200073283390190565b6000819050919050565b6200043e8162000429565b82525050565b60006020820190506200045b600083018462000433565b92915050565b600073ffffffffffffffffffffffffffffffffffffffff82169050919050565b60006200048e8262000461565b9050919050565b620004a08162000481565b82525050565b6000602082019050620004bd600083018462000495565b92915050565b600080fd5b620004d38162000429565b8114620004df57600080fd5b50565b600081359050620004f381620004c8565b92915050565b600060208284031215620005125762000511620004c3565b5b60006200052284828501620004e2565b91505092915050565b600063ffffffff82169050919050565b62000546816200052b565b81146200055257600080fd5b50565b60008135905062000566816200053b565b92915050565b60008060408385031215620005865762000585620004c3565b5b60006200059685828601620004e2565b9250506020620005a98582860162000555565b9150509250929050565b620005be816200052b565b82525050565b6000819050919050565b620005d981620005c4565b82525050565b600067ffffffffffffffff82169050919050565b620005fe81620005df565b82525050565b6000610140820190506200061c600083018d62000495565b6200062b602083018c62000495565b6200063a604083018b62000495565b62000649606083018a62000433565b62000658608083018962000433565b6200066760a083018862000433565b6200067660c0830187620005b3565b6200068560e0830186620005ce565b62000695610100830185620005f3565b620006a5610120830184620005b3565b9b9a5050505050505050505050565b7f4e487b7100000000000000000000000000000000000000000000000000000000600052601160045260246000fd5b6000620006f08262000429565b91507fffffffffffffffffffffffffffffffffffffffffffffffffffffffffffffffff821415620007265762000725620006b4565b5b60018201905091905056fe6101a0604052600060025560006003553480156200001c57600080fd5b5060405162002329380380620023298339818101604052810190620000429190620003e1565b898073ffffffffffffffffffffffffffffffffffffffff1660808173ffffffffffffffffffffffffffffffffffffffff1660601b81525050508873ffffffffffffffffffffffffffffffffffffffff166101208173ffffffffffffffffffffffffffffffffffffffff1660601b815250508973ffffffffffffffffffffffffffffffffffffffff1660a08173ffffffffffffffffffffffffffffffffffffffff1660601b815250508661014081815250508260e081815250508167ffffffffffffffff1660c08167ffffffffffffffff1660c01b815250508063ffffffff166101008163ffffffff1660e01b8152505060405180606001604052806001151581526020018563ffffffff16815260200186815250600660008201518160000160006101000a81548160ff02191690831515021790555060208201518160000160016101000a81548163ffffffff021916908363ffffffff16021790555060408201518160010155905050856101608181525050426001819055508773ffffffffffffffffffffffffffffffffffffffff166101808173ffffffffffffffffffffffffffffffffffffffff1660601b815250506101205160601c73ffffffffffffffffffffffffffffffffffffffff16630dc9127986306040518363ffffffff1660e01b815260040162000237929190620004f9565b600060405180830381600087803b1580156200025257600080fd5b505af115801562000267573d6000803e3d6000fd5b505050505050505050505050505062000526565b600080fd5b600073ffffffffffffffffffffffffffffffffffffffff82169050919050565b6000620002ad8262000280565b9050919050565b620002bf81620002a0565b8114620002cb57600080fd5b50565b600081519050620002df81620002b4565b92915050565b6000819050919050565b620002fa81620002e5565b81146200030657600080fd5b50565b6000815190506200031a81620002ef565b92915050565b600063ffffffff82169050919050565b6200033b8162000320565b81146200034757600080fd5b50565b6000815190506200035b8162000330565b92915050565b6000819050919050565b620003768162000361565b81146200038257600080fd5b50565b60008151905062000396816200036b565b92915050565b600067ffffffffffffffff82169050919050565b620003bb816200039c565b8114620003c757600080fd5b50565b600081519050620003db81620003b0565b92915050565b6000806000806000806000806000806101408b8d0312156200040857620004076200027b565b5b6000620004188d828e01620002ce565b9a505060206200042b8d828e01620002ce565b99505060406200043e8d828e01620002ce565b9850506060620004518d828e0162000309565b9750506080620004648d828e0162000309565b96505060a0620004778d828e0162000309565b95505060c06200048a8d828e016200034a565b94505060e06200049d8d828e0162000385565b935050610100620004b18d828e01620003ca565b925050610120620004c58d828e016200034a565b9150509295989b9194979a5092959850565b620004e281620002e5565b82525050565b620004f381620002a0565b82525050565b6000604082019050620005106000830185620004d7565b6200051f6020830184620004e8565b9392505050565b60805160601c60a05160601c60c05160c01c60e0516101005160e01c6101205160601c61014051610160516101805160601c611d44620005e56000396000505060008181610a5d0152610cab01526000818161072101526110310152600081816103dd015281816108080152818161092c01528181610d7701528181610e6f01528181610f20015261105701526000610b6501526000610b2101526000610b4201526000610ae501526000818161066101526106b50152611d446000f3fe6080604052600436106100dd5760003560e01c80634585e33b1161007f5780637cbed0b2116100595780637cbed0b2146102a0578063a4db6252146102cb578063cc45483f14610308578063d64390eb14610335576100dd565b80634585e33b1461020e5780636a35402f146102375780636e04ff0d14610262576100dd565b80631fe543e3116100bb5780631fe543e3146101615780632cfcc5391461018a57806332bf31441461019457806332ce7f4f146101d1576100dd565b8063050d1718146100e2578063154a21271461010d5780631d2f7a5514610138575b600080fd5b3480156100ee57600080fd5b506100f7610360565b60405161010491906111d0565b60405180910390f35b34801561011957600080fd5b50610122610366565b60405161012f9190611206565b60405180910390f35b34801561014457600080fd5b5061015f600480360381019061015a9190611261565b610377565b005b34801561016d57600080fd5b50610188600480360381019061018391906113e7565b61065f565b005b61019261071f565b005b3480156101a057600080fd5b506101bb60048036038101906101b69190611261565b6108f3565b6040516101c891906111d0565b60405180910390f35b3480156101dd57600080fd5b506101f860048036038101906101f39190611261565b610925565b60405161020591906111d0565b60405180910390f35b34801561021a57600080fd5b506102356004803603810190610230919061149e565b6109e8565b005b34801561024357600080fd5b5061024c610c2e565b60405161025991906111d0565b60405180910390f35b34801561026e57600080fd5b50610289600480360381019061028491906115a0565b610c34565b604051610297929190611671565b60405180910390f35b3480156102ac57600080fd5b506102b5610ca9565b6040516102c291906111d0565b60405180910390f35b3480156102d757600080fd5b506102f260048036038101906102ed9190611261565b610ccd565b6040516102ff9190611206565b60405180910390f35b34801561031457600080fd5b5061031d610ffa565b60405161032c939291906116c0565b60405180910390f35b34801561034157600080fd5b5061034a61102f565b60405161035791906111d0565b60405180910390f35b60035481565b60008054906101000a900460ff1681565b60008054906101000a900460ff166103c4576040517fb4c0ebef0000000000000000000000000000000000000000000000000000000081526004016103bb90611754565b60405180910390fd5b3373ffffffffffffffffffffffffffffffffffffffff167f000000000000000000000000000000000000000000000000000000000000000073ffffffffffffffffffffffffffffffffffffffff16636352211e836040518263ffffffff1660e01b815260040161043491906111d0565b60206040518083038186803b15801561044c57600080fd5b505afa158015610460573d6000803e3d6000fd5b505050506040513d601f19601f8201168201806040525081019061048491906117d2565b73ffffffffffffffffffffffffffffffffffffffff16146104da576040517fb4c0ebef0000000000000000000000000000000000000000000000000000000081526004016104d190611871565b60405180910390fd5b6000600560008381526020019081526020016000205411610530576040517fb4c0ebef000000000000000000000000000000000000000000000000000000008152600401610527906118dd565b60405180910390fd5b600560008281526020019081526020016000205460026000828254610555919061192c565b9250508190555060003373ffffffffffffffffffffffffffffffffffffffff164760405161058290611991565b60006040518083038185875af1925050503d80600081146105bf576040519150601f19603f3d011682016040523d82523d6000602084013e6105c4565b606091505b50509050806105ff576040517fa1d04b3900000000000000000000000000000000000000000000000000000000815260040160405180910390fd5b600060056000848152602001908152602001600020819055503373ffffffffffffffffffffffffffffffffffffffff167fcecccf974394b5dfc20e8840042bbaa68e166eff261ba930e076891582965d4160405160405180910390a25050565b7f000000000000000000000000000000000000000000000000000000000000000073ffffffffffffffffffffffffffffffffffffffff163373ffffffffffffffffffffffffffffffffffffffff161461071157337f00000000000000000000000000000000000000000000000000000000000000006040517f1cf993f40000000000000000000000000000000000000000000000000000000081526004016107089291906119b5565b60405180910390fd5b61071b8282611053565b5050565b7f0000000000000000000000000000000000000000000000000000000000000000341015610779576040517f92518d7a00000000000000000000000000000000000000000000000000000000815260040160405180910390fd5b60001515600660000160009054906101000a900460ff16151514156107ca576040517f1425571c00000000000000000000000000000000000000000000000000000000815260040160405180910390fd5b34600260008282546107dc91906119de565b925050819055506107ec3461113d565b600360008282546107fd91906119de565b9250508190555060007f000000000000000000000000000000000000000000000000000000000000000073ffffffffffffffffffffffffffffffffffffffff1663bf2c8a94600660010154336108523461113d565b346040518563ffffffff1660e01b81526004016108729493929190611a34565b602060405180830381600087803b15801561088c57600080fd5b505af11580156108a0573d6000803e3d6000fd5b505050506040513d601f19601f820116820180604052508101906108c49190611a8e565b9050346005600083815260200190815260200160002060008282546108e991906119de565b9250508190555050565b60006108fe8261113d565b60035461090b91906119de565b6109148361113d565b61091e9190611aea565b9050919050565b60006003547f000000000000000000000000000000000000000000000000000000000000000073ffffffffffffffffffffffffffffffffffffffff16637aee6c3c846040518263ffffffff1660e01b815260040161098391906111d0565b60a06040518083038186803b15801561099b57600080fd5b505afa1580156109af573d6000803e3d6000fd5b505050506040513d601f19601f820116820180604052508101906109d39190611bac565b604001516109e19190611aea565b9050919050565b6000610a0260405180602001604052806000815250610c34565b50905080610a5b5747600660000160009054906101000a900460ff166040517f8b23454e000000000000000000000000000000000000000000000000000000008152600401610a52929190611bd9565b60405180910390fd5b7f00000000000000000000000000000000000000000000000000000000000000006002541015610ac35760016000806101000a81548160ff0219169083151502179055506000600660000160006101000a81548160ff02191690831515021790555050610c2a565b6000600660000160006101000a81548160ff02191690831515021790555060007f000000000000000000000000000000000000000000000000000000000000000073ffffffffffffffffffffffffffffffffffffffff16635d3b1d307f00000000000000000000000000000000000000000000000000000000000000007f000000000000000000000000000000000000000000000000000000000000000060037f000000000000000000000000000000000000000000000000000000000000000060016040518663ffffffff1660e01b8152600401610ba6959493929190611c5b565b602060405180830381600087803b158015610bc057600080fd5b505af1158015610bd4573d6000803e3d6000fd5b505050506040513d601f19601f82011682018060405250810190610bf89190611a8e565b9050807fcd6e45c8998311cab7e9d4385596cac867e20a0587194b954fa3a731c93ce78b60405160405180910390a250505b5050565b60025481565b600060606000600660000160009054906101000a900460ff161515600115151490506000600154600660000160019054906101000a900463ffffffff1663ffffffff16610c8191906119de565b4211905060008047119050828015610c965750815b8015610c9f5750805b9450505050915091565b7f000000000000000000000000000000000000000000000000000000000000000081565b6000600660000160009054906101000a900460ff1615610d19576040517f6a1550d500000000000000000000000000000000000000000000000000000000815260040160405180910390fd5b60008054906101000a900460ff1615610d5e576040517f8aafd40b00000000000000000000000000000000000000000000000000000000815260040160405180910390fd5b3373ffffffffffffffffffffffffffffffffffffffff167f000000000000000000000000000000000000000000000000000000000000000073ffffffffffffffffffffffffffffffffffffffff16636352211e846040518263ffffffff1660e01b8152600401610dce91906111d0565b60206040518083038186803b158015610de657600080fd5b505afa158015610dfa573d6000803e3d6000fd5b505050506040513d601f19601f82011682018060405250810190610e1e91906117d2565b73ffffffffffffffffffffffffffffffffffffffff1614610e6b576040517f51ed287900000000000000000000000000000000000000000000000000000000815260040160405180910390fd5b60007f000000000000000000000000000000000000000000000000000000000000000073ffffffffffffffffffffffffffffffffffffffff16637aee6c3c846040518263ffffffff1660e01b8152600401610ec691906111d0565b60a06040518083038186803b158015610ede57600080fd5b505afa158015610ef2573d6000803e3d6000fd5b505050506040513d601f19601f82011682018060405250810190610f169190611bac565b60000151905060007f000000000000000000000000000000000000000000000000000000000000000073ffffffffffffffffffffffffffffffffffffffff16637aee6c3c856040518263ffffffff1660e01b8152600401610f7791906111d0565b60a06040518083038186803b158015610f8f57600080fd5b505afa158015610fa3573d6000803e3d6000fd5b505050506040513d601f19601f82011682018060405250810190610fc79190611bac565b6020015190506004548211158015610fe0575080600454105b15610fee5760019250610ff3565b600092505b5050919050565b60068060000160009054906101000a900460ff16908060000160019054906101000a900463ffffffff16908060010154905083565b7f000000000000000000000000000000000000000000000000000000000000000081565b60017f000000000000000000000000000000000000000000000000000000000000000073ffffffffffffffffffffffffffffffffffffffff1663bc7bc13c6006600101546040518263ffffffff1660e01b81526004016110b391906111d0565b60206040518083038186803b1580156110cb57600080fd5b505afa1580156110df573d6000803e3d6000fd5b505050506040513d601f19601f820116820180604052508101906111039190611a8e565b61110d919061192c565b8160008151811061112157611120611cae565b5b60200260200101516111339190611cdd565b6004819055505050565b600060038211156111a4578190506000600160028461115c9190611aea565b61116691906119de565b90505b8181101561119e5780915060028182856111839190611aea565b61118d91906119de565b6111979190611aea565b9050611169565b506111b2565b600082146111b157600190505b5b919050565b6000819050919050565b6111ca816111b7565b82525050565b60006020820190506111e560008301846111c1565b92915050565b60008115159050919050565b611200816111eb565b82525050565b600060208201905061121b60008301846111f7565b92915050565b6000604051905090565b600080fd5b600080fd5b61123e816111b7565b811461124957600080fd5b50565b60008135905061125b81611235565b92915050565b6000602082840312156112775761127661122b565b5b60006112858482850161124c565b91505092915050565b600080fd5b6000601f19601f8301169050919050565b7f4e487b7100000000000000000000000000000000000000000000000000000000600052604160045260246000fd5b6112dc82611293565b810181811067ffffffffffffffff821117156112fb576112fa6112a4565b5b80604052505050565b600061130e611221565b905061131a82826112d3565b919050565b600067ffffffffffffffff82111561133a576113396112a4565b5b602082029050602081019050919050565b600080fd5b600061136361135e8461131f565b611304565b905080838252602082019050602084028301858111156113865761138561134b565b5b835b818110156113af578061139b888261124c565b845260208401935050602081019050611388565b5050509392505050565b600082601f8301126113ce576113cd61128e565b5b81356113de848260208601611350565b91505092915050565b600080604083850312156113fe576113fd61122b565b5b600061140c8582860161124c565b925050602083013567ffffffffffffffff81111561142d5761142c611230565b5b611439858286016113b9565b9150509250929050565b600080fd5b60008083601f84011261145e5761145d61128e565b5b8235905067ffffffffffffffff81111561147b5761147a611443565b5b6020830191508360018202830111156114975761149661134b565b5b9250929050565b600080602083850312156114b5576114b461122b565b5b600083013567ffffffffffffffff8111156114d3576114d2611230565b5b6114df85828601611448565b92509250509250929050565b600080fd5b600067ffffffffffffffff82111561150b5761150a6112a4565b5b61151482611293565b9050602081019050919050565b82818337600083830152505050565b600061154361153e846114f0565b611304565b90508281526020810184848401111561155f5761155e6114eb565b5b61156a848285611521565b509392505050565b600082601f8301126115875761158661128e565b5b8135611597848260208601611530565b91505092915050565b6000602082840312156115b6576115b561122b565b5b600082013567ffffffffffffffff8111156115d4576115d3611230565b5b6115e084828501611572565b91505092915050565b600081519050919050565b600082825260208201905092915050565b60005b83811015611623578082015181840152602081019050611608565b83811115611632576000848401525b50505050565b6000611643826115e9565b61164d81856115f4565b935061165d818560208601611605565b61166681611293565b840191505092915050565b600060408201905061168660008301856111f7565b81810360208301526116988184611638565b90509392505050565b600063ffffffff82169050919050565b6116ba816116a1565b82525050565b60006060820190506116d560008301866111f7565b6116e260208301856116b1565b6116ef60408301846111c1565b949350505050565b600082825260208201905092915050565b7f4e6f206f6e652063616e20776974686472617720796574210000000000000000600082015250565b600061173e6018836116f7565b915061174982611708565b602082019050919050565b6000602082019050818103600083015261176d81611731565b9050919050565b600073ffffffffffffffffffffffffffffffffffffffff82169050919050565b600061179f82611774565b9050919050565b6117af81611794565b81146117ba57600080fd5b50565b6000815190506117cc816117a6565b92915050565b6000602082840312156117e8576117e761122b565b5b60006117f6848285016117bd565b91505092915050565b7f596f75206172656e277420746865206f776e6572206f6620746865207469636b60008201527f6574210000000000000000000000000000000000000000000000000000000000602082015250565b600061185b6023836116f7565b9150611866826117ff565b604082019050919050565b6000602082019050818103600083015261188a8161184e565b9050919050565b7f446f65736e27742068617665206d6174696320746f2077697468647261772100600082015250565b60006118c7601f836116f7565b91506118d282611891565b602082019050919050565b600060208201905081810360008301526118f6816118ba565b9050919050565b7f4e487b7100000000000000000000000000000000000000000000000000000000600052601160045260246000fd5b6000611937826111b7565b9150611942836111b7565b925082821015611955576119546118fd565b5b828203905092915050565b600081905092915050565b50565b600061197b600083611960565b91506119868261196b565b600082019050919050565b600061199c8261196e565b9150819050919050565b6119af81611794565b82525050565b60006040820190506119ca60008301856119a6565b6119d760208301846119a6565b9392505050565b60006119e9826111b7565b91506119f4836111b7565b9250827fffffffffffffffffffffffffffffffffffffffffffffffffffffffffffffffff03821115611a2957611a286118fd565b5b828201905092915050565b6000608082019050611a4960008301876111c1565b611a5660208301866119a6565b611a6360408301856111c1565b611a7060608301846111c1565b95945050505050565b600081519050611a8881611235565b92915050565b600060208284031215611aa457611aa361122b565b5b6000611ab284828501611a79565b91505092915050565b7f4e487b7100000000000000000000000000000000000000000000000000000000600052601260045260246000fd5b6000611af5826111b7565b9150611b00836111b7565b925082611b1057611b0f611abb565b5b828204905092915050565b600080fd5b600060a08284031215611b3657611b35611b1b565b5b611b4060a0611304565b90506000611b5084828501611a79565b6000830152506020611b6484828501611a79565b6020830152506040611b7884828501611a79565b6040830152506060611b8c84828501611a79565b6060830152506080611ba084828501611a79565b60808301525092915050565b600060a08284031215611bc257611bc161122b565b5b6000611bd084828501611b20565b91505092915050565b6000604082019050611bee60008301856111c1565b611bfb60208301846111f7565b9392505050565b6000819050919050565b611c1581611c02565b82525050565b600067ffffffffffffffff82169050919050565b611c3881611c1b565b82525050565b600061ffff82169050919050565b611c5581611c3e565b82525050565b600060a082019050611c706000830188611c0c565b611c7d6020830187611c2f565b611c8a6040830186611c4c565b611c9760608301856116b1565b611ca460808301846116b1565b9695505050505050565b7f4e487b7100000000000000000000000000000000000000000000000000000000600052603260045260246000fd5b6000611ce8826111b7565b9150611cf3836111b7565b925082611d0357611d02611abb565b5b82820690509291505056fea2646970667358221220ca3480cc9bcc0152a3405dd6d37c6971e0e27d808d5058d30e21a581304506d964736f6c63430008080033a26469706673582212207736db5db1c9c4a9caa9a0bcdf331d0baaa6f99dd3acc8769f60466a628cdb2464736f6c6343000808003360806040523480156200001157600080fd5b50604051620034f4380380620034f483398181016040528101906200003791906200032f565b6040518060400160405280600d81526020017f526166666c65205469636b6574000000000000000000000000000000000000008152506040518060400160405280600481526020017f524e4654000000000000000000000000000000000000000000000000000000008152508160009080519060200190620000bb92919062000215565b508060019080519060200190620000d492919062000215565b505050620000f7620000eb6200014760201b60201c565b6200014f60201b60201c565b6001600c8190555080600b60006101000a81548173ffffffffffffffffffffffffffffffffffffffff021916908373ffffffffffffffffffffffffffffffffffffffff16021790555050620003c6565b600033905090565b6000600660009054906101000a900473ffffffffffffffffffffffffffffffffffffffff16905081600660006101000a81548173ffffffffffffffffffffffffffffffffffffffff021916908373ffffffffffffffffffffffffffffffffffffffff1602179055508173ffffffffffffffffffffffffffffffffffffffff168173ffffffffffffffffffffffffffffffffffffffff167f8be0079c531659141344cd1fd0a4f28419497f9722a3daafe3b4186f6b6457e060405160405180910390a35050565b828054620002239062000390565b90600052602060002090601f01602090048101928262000247576000855562000293565b82601f106200026257805160ff191683800117855562000293565b8280016001018555821562000293579182015b828111156200029257825182559160200191906001019062000275565b5b509050620002a29190620002a6565b5090565b5b80821115620002c1576000816000905550600101620002a7565b5090565b600080fd5b600073ffffffffffffffffffffffffffffffffffffffff82169050919050565b6000620002f782620002ca565b9050919050565b6200030981620002ea565b81146200031557600080fd5b50565b6000815190506200032981620002fe565b92915050565b600060208284031215620003485762000347620002c5565b5b6000620003588482850162000318565b91505092915050565b7f4e487b7100000000000000000000000000000000000000000000000000000000600052602260045260246000fd5b60006002820490506001821680620003a957607f821691505b60208210811415620003c057620003bf62000361565b5b50919050565b61311e80620003d66000396000f3fe608060405234801561001057600080fd5b50600436106101425760003560e01c80637aee6c3c116100b8578063bb9d7f041161007c578063bb9d7f0414610361578063bc7bc13c14610391578063bf2c8a94146103c1578063c87b56dd146103f1578063e985e9c514610421578063f2fde38b1461045157610142565b80637aee6c3c146102bd5780638da5cb5b146102ed57806395d89b411461030b578063a22cb46514610329578063b88d4fde1461034557610142565b8063171314f11161010a578063171314f1146101fd57806323b872dd1461021b57806342842e0e146102375780636352211e1461025357806370a0823114610283578063715018a6146102b357610142565b806301ffc9a71461014757806306fdde0314610177578063081812fc14610195578063095ea7b3146101c55780630dc91279146101e1575b600080fd5b610161600480360381019061015c9190611e28565b61046d565b60405161016e9190611e70565b60405180910390f35b61017f61054f565b60405161018c9190611f24565b60405180910390f35b6101af60048036038101906101aa9190611f7c565b6105e1565b6040516101bc9190611fea565b60405180910390f35b6101df60048036038101906101da9190612031565b610666565b005b6101fb60048036038101906101f69190612071565b61077e565b005b6102056107e0565b60405161021291906120c0565b60405180910390f35b610235600480360381019061023091906120db565b6107e6565b005b610251600480360381019061024c91906120db565b610846565b005b61026d60048036038101906102689190611f7c565b610866565b60405161027a9190611fea565b60405180910390f35b61029d6004803603810190610298919061212e565b610918565b6040516102aa91906120c0565b60405180910390f35b6102bb6109d0565b005b6102d760048036038101906102d29190611f7c565b610a58565b6040516102e491906121d2565b60405180910390f35b6102f5610aff565b6040516103029190611fea565b60405180910390f35b610313610b29565b6040516103209190611f24565b60405180910390f35b610343600480360381019061033e9190612219565b610bbb565b005b61035f600480360381019061035a919061238e565b610bd1565b005b61037b60048036038101906103769190611f7c565b610c33565b60405161038891906120c0565b60405180910390f35b6103ab60048036038101906103a69190611f7c565b610c9b565b6040516103b891906120c0565b60405180910390f35b6103db60048036038101906103d69190612411565b610cb8565b6040516103e891906120c0565b60405180910390f35b61040b60048036038101906104069190611f7c565b610ed9565b6040516104189190611f24565b60405180910390f35b61043b60048036038101906104369190612478565b610f80565b6040516104489190611e70565b60405180910390f35b61046b6004803603810190610466919061212e565b611014565b005b60007f80ac58cd000000000000000000000000000000000000000000000000000000007bffffffffffffffffffffffffffffffffffffffffffffffffffffffff1916827bffffffffffffffffffffffffffffffffffffffffffffffffffffffff1916148061053857507f5b5e139f000000000000000000000000000000000000000000000000000000007bffffffffffffffffffffffffffffffffffffffffffffffffffffffff1916827bffffffffffffffffffffffffffffffffffffffffffffffffffffffff1916145b8061054857506105478261110c565b5b9050919050565b60606000805461055e906124e7565b80601f016020809104026020016040519081016040528092919081815260200182805461058a906124e7565b80156105d75780601f106105ac576101008083540402835291602001916105d7565b820191906000526020600020905b8154815290600101906020018083116105ba57829003601f168201915b5050505050905090565b60006105ec82611176565b61062b576040517f08c379a00000000000000000000000000000000000000000000000000000000081526004016106229061258b565b60405180910390fd5b6004600083815260200190815260200160002060009054906101000a900473ffffffffffffffffffffffffffffffffffffffff169050919050565b600061067182610866565b90508073ffffffffffffffffffffffffffffffffffffffff168373ffffffffffffffffffffffffffffffffffffffff1614156106e2576040517f08c379a00000000000000000000000000000000000000000000000000000000081526004016106d99061261d565b60405180910390fd5b8073ffffffffffffffffffffffffffffffffffffffff166107016111e2565b73ffffffffffffffffffffffffffffffffffffffff161480610730575061072f8161072a6111e2565b610f80565b5b61076f576040517f08c379a0000000000000000000000000000000000000000000000000000000008152600401610766906126af565b60405180910390fd5b61077983836111ea565b505050565b600060096000848152602001908152602001600020819055506001600a60008373ffffffffffffffffffffffffffffffffffffffff1673ffffffffffffffffffffffffffffffffffffffff168152602001908152602001600020819055505050565b600c5481565b6107f76107f16111e2565b826112a3565b610836576040517f08c379a000000000000000000000000000000000000000000000000000000000815260040161082d90612741565b60405180910390fd5b610841838383611381565b505050565b61086183838360405180602001604052806000815250610bd1565b505050565b6000806002600084815260200190815260200160002060009054906101000a900473ffffffffffffffffffffffffffffffffffffffff169050600073ffffffffffffffffffffffffffffffffffffffff168173ffffffffffffffffffffffffffffffffffffffff16141561090f576040517f08c379a0000000000000000000000000000000000000000000000000000000008152600401610906906127d3565b60405180910390fd5b80915050919050565b60008073ffffffffffffffffffffffffffffffffffffffff168273ffffffffffffffffffffffffffffffffffffffff161415610989576040517f08c379a000000000000000000000000000000000000000000000000000000000815260040161098090612865565b60405180910390fd5b600360008373ffffffffffffffffffffffffffffffffffffffff1673ffffffffffffffffffffffffffffffffffffffff168152602001908152602001600020549050919050565b6109d86111e2565b73ffffffffffffffffffffffffffffffffffffffff166109f6610aff565b73ffffffffffffffffffffffffffffffffffffffff1614610a4c576040517f08c379a0000000000000000000000000000000000000000000000000000000008152600401610a43906128d1565b60405180910390fd5b610a5660006115e8565b565b610a60611d8d565b6001821080610a715750600c548210155b15610aa8576040517fdf28170c00000000000000000000000000000000000000000000000000000000815260040160405180910390fd5b600860008381526020019081526020016000206040518060a0016040529081600082015481526020016001820154815260200160028201548152602001600382015481526020016004820154815250509050919050565b6000600660009054906101000a900473ffffffffffffffffffffffffffffffffffffffff16905090565b606060018054610b38906124e7565b80601f0160208091040260200160405190810160405280929190818152602001828054610b64906124e7565b8015610bb15780601f10610b8657610100808354040283529160200191610bb1565b820191906000526020600020905b815481529060010190602001808311610b9457829003601f168201915b5050505050905090565b610bcd610bc66111e2565b83836116ae565b5050565b610be2610bdc6111e2565b836112a3565b610c21576040517f08c379a0000000000000000000000000000000000000000000000000000000008152600401610c1890612741565b60405180910390fd5b610c2d8484848461181b565b50505050565b60006001821080610c465750600c548210155b15610c7d576040517fdf28170c00000000000000000000000000000000000000000000000000000000815260040160405180910390fd5b60086000838152602001908152602001600020600301549050919050565b600060096000838152602001908152602001600020549050919050565b60003373ffffffffffffffffffffffffffffffffffffffff16600b60009054906101000a900473ffffffffffffffffffffffffffffffffffffffff1673ffffffffffffffffffffffffffffffffffffffff16635d4bc0ce876040518263ffffffff1660e01b8152600401610d2c91906120c0565b60206040518083038186803b158015610d4457600080fd5b505afa158015610d58573d6000803e3d6000fd5b505050506040513d601f19601f82011682018060405250810190610d7c9190612906565b73ffffffffffffffffffffffffffffffffffffffff1614610dc9576040517fbc7dac5000000000000000000000000000000000000000000000000000000000815260040160405180910390fd5b60006009600087815260200190815260200160002054905060008185610def9190612962565b90506040518060a001604052808381526020018281526020018681526020018581526020018881525060086000600c5481526020019081526020016000206000820151816000015560208201518160010155604082015181600201556060820151816003015560808201518160040155905050610e6e86600c54611877565b600c549250600c6000815480929190610e86906129b8565b91905055508060096000898152602001908152602001600020819055507fda74f8011975386f44fce994f109bf702f8059d93f84b004f4188d55e7ff659160405160405180910390a15050949350505050565b6060610ee482611176565b610f23576040517f08c379a0000000000000000000000000000000000000000000000000000000008152600401610f1a90612a73565b60405180910390fd5b6000610f2d611a51565b90506000815111610f4d5760405180602001604052806000815250610f78565b80610f5784611a68565b604051602001610f68929190612acf565b6040516020818303038152906040525b915050919050565b6000600560008473ffffffffffffffffffffffffffffffffffffffff1673ffffffffffffffffffffffffffffffffffffffff16815260200190815260200160002060008373ffffffffffffffffffffffffffffffffffffffff1673ffffffffffffffffffffffffffffffffffffffff16815260200190815260200160002060009054906101000a900460ff16905092915050565b61101c6111e2565b73ffffffffffffffffffffffffffffffffffffffff1661103a610aff565b73ffffffffffffffffffffffffffffffffffffffff1614611090576040517f08c379a0000000000000000000000000000000000000000000000000000000008152600401611087906128d1565b60405180910390fd5b600073ffffffffffffffffffffffffffffffffffffffff168173ffffffffffffffffffffffffffffffffffffffff161415611100576040517f08c379a00000000000000000000000000000000000000000000000000000000081526004016110f790612b65565b60405180910390fd5b611109816115e8565b50565b60007f01ffc9a7000000000000000000000000000000000000000000000000000000007bffffffffffffffffffffffffffffffffffffffffffffffffffffffff1916827bffffffffffffffffffffffffffffffffffffffffffffffffffffffff1916149050919050565b60008073ffffffffffffffffffffffffffffffffffffffff166002600084815260200190815260200160002060009054906101000a900473ffffffffffffffffffffffffffffffffffffffff1673ffffffffffffffffffffffffffffffffffffffff1614159050919050565b600033905090565b816004600083815260200190815260200160002060006101000a81548173ffffffffffffffffffffffffffffffffffffffff021916908373ffffffffffffffffffffffffffffffffffffffff160217905550808273ffffffffffffffffffffffffffffffffffffffff1661125d83610866565b73ffffffffffffffffffffffffffffffffffffffff167f8c5be1e5ebec7d5bd14f71427d1e84f3dd0314c0f7b2291e5b200ac8c7c3b92560405160405180910390a45050565b60006112ae82611176565b6112ed576040517f08c379a00000000000000000000000000000000000000000000000000000000081526004016112e490612bf7565b60405180910390fd5b60006112f883610866565b90508073ffffffffffffffffffffffffffffffffffffffff168473ffffffffffffffffffffffffffffffffffffffff16148061133a57506113398185610f80565b5b8061137857508373ffffffffffffffffffffffffffffffffffffffff16611360846105e1565b73ffffffffffffffffffffffffffffffffffffffff16145b91505092915050565b8273ffffffffffffffffffffffffffffffffffffffff166113a182610866565b73ffffffffffffffffffffffffffffffffffffffff16146113f7576040517f08c379a00000000000000000000000000000000000000000000000000000000081526004016113ee90612c89565b60405180910390fd5b600073ffffffffffffffffffffffffffffffffffffffff168273ffffffffffffffffffffffffffffffffffffffff161415611467576040517f08c379a000000000000000000000000000000000000000000000000000000000815260040161145e90612d1b565b60405180910390fd5b611472838383611bc9565b61147d6000826111ea565b6001600360008573ffffffffffffffffffffffffffffffffffffffff1673ffffffffffffffffffffffffffffffffffffffff16815260200190815260200160002060008282546114cd9190612d3b565b925050819055506001600360008473ffffffffffffffffffffffffffffffffffffffff1673ffffffffffffffffffffffffffffffffffffffff16815260200190815260200160002060008282546115249190612962565b92505081905550816002600083815260200190815260200160002060006101000a81548173ffffffffffffffffffffffffffffffffffffffff021916908373ffffffffffffffffffffffffffffffffffffffff160217905550808273ffffffffffffffffffffffffffffffffffffffff168473ffffffffffffffffffffffffffffffffffffffff167fddf252ad1be2c89b69c2b068fc378daa952ba7f163c4a11628f55a4df523b3ef60405160405180910390a46115e3838383611bce565b505050565b6000600660009054906101000a900473ffffffffffffffffffffffffffffffffffffffff16905081600660006101000a81548173ffffffffffffffffffffffffffffffffffffffff021916908373ffffffffffffffffffffffffffffffffffffffff1602179055508173ffffffffffffffffffffffffffffffffffffffff168173ffffffffffffffffffffffffffffffffffffffff167f8be0079c531659141344cd1fd0a4f28419497f9722a3daafe3b4186f6b6457e060405160405180910390a35050565b8173ffffffffffffffffffffffffffffffffffffffff168373ffffffffffffffffffffffffffffffffffffffff16141561171d576040517f08c379a000000000000000000000000000000000000000000000000000000000815260040161171490612dbb565b60405180910390fd5b80600560008573ffffffffffffffffffffffffffffffffffffffff1673ffffffffffffffffffffffffffffffffffffffff16815260200190815260200160002060008473ffffffffffffffffffffffffffffffffffffffff1673ffffffffffffffffffffffffffffffffffffffff16815260200190815260200160002060006101000a81548160ff0219169083151502179055508173ffffffffffffffffffffffffffffffffffffffff168373ffffffffffffffffffffffffffffffffffffffff167f17307eab39ab6107e8899845ad3d59bd9653f200f220920489ca2b5937696c318360405161180e9190611e70565b60405180910390a3505050565b611826848484611381565b61183284848484611bd3565b611871576040517f08c379a000000000000000000000000000000000000000000000000000000000815260040161186890612e4d565b60405180910390fd5b50505050565b600073ffffffffffffffffffffffffffffffffffffffff168273ffffffffffffffffffffffffffffffffffffffff1614156118e7576040517f08c379a00000000000000000000000000000000000000000000000000000000081526004016118de90612eb9565b60405180910390fd5b6118f081611176565b15611930576040517f08c379a000000000000000000000000000000000000000000000000000000000815260040161192790612f25565b60405180910390fd5b61193c60008383611bc9565b6001600360008473ffffffffffffffffffffffffffffffffffffffff1673ffffffffffffffffffffffffffffffffffffffff168152602001908152602001600020600082825461198c9190612962565b92505081905550816002600083815260200190815260200160002060006101000a81548173ffffffffffffffffffffffffffffffffffffffff021916908373ffffffffffffffffffffffffffffffffffffffff160217905550808273ffffffffffffffffffffffffffffffffffffffff16600073ffffffffffffffffffffffffffffffffffffffff167fddf252ad1be2c89b69c2b068fc378daa952ba7f163c4a11628f55a4df523b3ef60405160405180910390a4611a4d60008383611bce565b5050565b606060405180602001604052806000815250905090565b60606000821415611ab0576040518060400160405280600181526020017f30000000000000000000000000000000000000000000000000000000000000008152509050611bc4565b600082905060005b60008214611ae2578080611acb906129b8565b915050600a82611adb9190612f74565b9150611ab8565b60008167ffffffffffffffff811115611afe57611afd612263565b5b6040519080825280601f01601f191660200182016040528015611b305781602001600182028036833780820191505090505b5090505b60008514611bbd57600182611b499190612d3b565b9150600a85611b589190612fa5565b6030611b649190612962565b60f81b818381518110611b7a57611b79612fd6565b5b60200101907effffffffffffffffffffffffffffffffffffffffffffffffffffffffffffff1916908160001a905350600a85611bb69190612f74565b9450611b34565b8093505050505b919050565b505050565b505050565b6000611bf48473ffffffffffffffffffffffffffffffffffffffff16611d6a565b15611d5d578373ffffffffffffffffffffffffffffffffffffffff1663150b7a02611c1d6111e2565b8786866040518563ffffffff1660e01b8152600401611c3f949392919061305a565b602060405180830381600087803b158015611c5957600080fd5b505af1925050508015611c8a57506040513d601f19601f82011682018060405250810190611c8791906130bb565b60015b611d0d573d8060008114611cba576040519150601f19603f3d011682016040523d82523d6000602084013e611cbf565b606091505b50600081511415611d05576040517f08c379a0000000000000000000000000000000000000000000000000000000008152600401611cfc90612e4d565b60405180910390fd5b805181602001fd5b63150b7a0260e01b7bffffffffffffffffffffffffffffffffffffffffffffffffffffffff1916817bffffffffffffffffffffffffffffffffffffffffffffffffffffffff191614915050611d62565b600190505b949350505050565b6000808273ffffffffffffffffffffffffffffffffffffffff163b119050919050565b6040518060a0016040528060008152602001600081526020016000815260200160008152602001600081525090565b6000604051905090565b600080fd5b600080fd5b60007fffffffff0000000000000000000000000000000000000000000000000000000082169050919050565b611e0581611dd0565b8114611e1057600080fd5b50565b600081359050611e2281611dfc565b92915050565b600060208284031215611e3e57611e3d611dc6565b5b6000611e4c84828501611e13565b91505092915050565b60008115159050919050565b611e6a81611e55565b82525050565b6000602082019050611e856000830184611e61565b92915050565b600081519050919050565b600082825260208201905092915050565b60005b83811015611ec5578082015181840152602081019050611eaa565b83811115611ed4576000848401525b50505050565b6000601f19601f8301169050919050565b6000611ef682611e8b565b611f008185611e96565b9350611f10818560208601611ea7565b611f1981611eda565b840191505092915050565b60006020820190508181036000830152611f3e8184611eeb565b905092915050565b6000819050919050565b611f5981611f46565b8114611f6457600080fd5b50565b600081359050611f7681611f50565b92915050565b600060208284031215611f9257611f91611dc6565b5b6000611fa084828501611f67565b91505092915050565b600073ffffffffffffffffffffffffffffffffffffffff82169050919050565b6000611fd482611fa9565b9050919050565b611fe481611fc9565b82525050565b6000602082019050611fff6000830184611fdb565b92915050565b61200e81611fc9565b811461201957600080fd5b50565b60008135905061202b81612005565b92915050565b6000806040838503121561204857612047611dc6565b5b60006120568582860161201c565b925050602061206785828601611f67565b9150509250929050565b6000806040838503121561208857612087611dc6565b5b600061209685828601611f67565b92505060206120a78582860161201c565b9150509250929050565b6120ba81611f46565b82525050565b60006020820190506120d560008301846120b1565b92915050565b6000806000606084860312156120f4576120f3611dc6565b5b60006121028682870161201c565b93505060206121138682870161201c565b925050604061212486828701611f67565b9150509250925092565b60006020828403121561214457612143611dc6565b5b60006121528482850161201c565b91505092915050565b61216481611f46565b82525050565b60a082016000820151612180600085018261215b565b506020820151612193602085018261215b565b5060408201516121a6604085018261215b565b5060608201516121b9606085018261215b565b5060808201516121cc608085018261215b565b50505050565b600060a0820190506121e7600083018461216a565b92915050565b6121f681611e55565b811461220157600080fd5b50565b600081359050612213816121ed565b92915050565b600080604083850312156122305761222f611dc6565b5b600061223e8582860161201c565b925050602061224f85828601612204565b9150509250929050565b600080fd5b600080fd5b7f4e487b7100000000000000000000000000000000000000000000000000000000600052604160045260246000fd5b61229b82611eda565b810181811067ffffffffffffffff821117156122ba576122b9612263565b5b80604052505050565b60006122cd611dbc565b90506122d98282612292565b919050565b600067ffffffffffffffff8211156122f9576122f8612263565b5b61230282611eda565b9050602081019050919050565b82818337600083830152505050565b600061233161232c846122de565b6122c3565b90508281526020810184848401111561234d5761234c61225e565b5b61235884828561230f565b509392505050565b600082601f83011261237557612374612259565b5b813561238584826020860161231e565b91505092915050565b600080600080608085870312156123a8576123a7611dc6565b5b60006123b68782880161201c565b94505060206123c78782880161201c565b93505060406123d887828801611f67565b925050606085013567ffffffffffffffff8111156123f9576123f8611dcb565b5b61240587828801612360565b91505092959194509250565b6000806000806080858703121561242b5761242a611dc6565b5b600061243987828801611f67565b945050602061244a8782880161201c565b935050604061245b87828801611f67565b925050606061246c87828801611f67565b91505092959194509250565b6000806040838503121561248f5761248e611dc6565b5b600061249d8582860161201c565b92505060206124ae8582860161201c565b9150509250929050565b7f4e487b7100000000000000000000000000000000000000000000000000000000600052602260045260246000fd5b600060028204905060018216806124ff57607f821691505b60208210811415612513576125126124b8565b5b50919050565b7f4552433732313a20617070726f76656420717565727920666f72206e6f6e657860008201527f697374656e7420746f6b656e0000000000000000000000000000000000000000602082015250565b6000612575602c83611e96565b915061258082612519565b604082019050919050565b600060208201905081810360008301526125a481612568565b9050919050565b7f4552433732313a20617070726f76616c20746f2063757272656e74206f776e6560008201527f7200000000000000000000000000000000000000000000000000000000000000602082015250565b6000612607602183611e96565b9150612612826125ab565b604082019050919050565b60006020820190508181036000830152612636816125fa565b9050919050565b7f4552433732313a20617070726f76652063616c6c6572206973206e6f74206f7760008201527f6e6572206e6f7220617070726f76656420666f7220616c6c0000000000000000602082015250565b6000612699603883611e96565b91506126a48261263d565b604082019050919050565b600060208201905081810360008301526126c88161268c565b9050919050565b7f4552433732313a207472616e736665722063616c6c6572206973206e6f74206f60008201527f776e6572206e6f7220617070726f766564000000000000000000000000000000602082015250565b600061272b603183611e96565b9150612736826126cf565b604082019050919050565b6000602082019050818103600083015261275a8161271e565b9050919050565b7f4552433732313a206f776e657220717565727920666f72206e6f6e657869737460008201527f656e7420746f6b656e0000000000000000000000000000000000000000000000602082015250565b60006127bd602983611e96565b91506127c882612761565b604082019050919050565b600060208201905081810360008301526127ec816127b0565b9050919050565b7f4552433732313a2062616c616e636520717565727920666f7220746865207a6560008201527f726f206164647265737300000000000000000000000000000000000000000000602082015250565b600061284f602a83611e96565b915061285a826127f3565b604082019050919050565b6000602082019050818103600083015261287e81612842565b9050919050565b7f4f776e61626c653a2063616c6c6572206973206e6f7420746865206f776e6572600082015250565b60006128bb602083611e96565b91506128c682612885565b602082019050919050565b600060208201905081810360008301526128ea816128ae565b9050919050565b60008151905061290081612005565b92915050565b60006020828403121561291c5761291b611dc6565b5b600061292a848285016128f1565b91505092915050565b7f4e487b7100000000000000000000000000000000000000000000000000000000600052601160045260246000fd5b600061296d82611f46565b915061297883611f46565b9250827fffffffffffffffffffffffffffffffffffffffffffffffffffffffffffffffff038211156129ad576129ac612933565b5b828201905092915050565b60006129c382611f46565b91507fffffffffffffffffffffffffffffffffffffffffffffffffffffffffffffffff8214156129f6576129f5612933565b5b600182019050919050565b7f4552433732314d657461646174613a2055524920717565727920666f72206e6f60008201527f6e6578697374656e7420746f6b656e0000000000000000000000000000000000602082015250565b6000612a5d602f83611e96565b9150612a6882612a01565b604082019050919050565b60006020820190508181036000830152612a8c81612a50565b9050919050565b600081905092915050565b6000612aa982611e8b565b612ab38185612a93565b9350612ac3818560208601611ea7565b80840191505092915050565b6000612adb8285612a9e565b9150612ae78284612a9e565b91508190509392505050565b7f4f776e61626c653a206e6577206f776e657220697320746865207a65726f206160008201527f6464726573730000000000000000000000000000000000000000000000000000602082015250565b6000612b4f602683611e96565b9150612b5a82612af3565b604082019050919050565b60006020820190508181036000830152612b7e81612b42565b9050919050565b7f4552433732313a206f70657261746f7220717565727920666f72206e6f6e657860008201527f697374656e7420746f6b656e0000000000000000000000000000000000000000602082015250565b6000612be1602c83611e96565b9150612bec82612b85565b604082019050919050565b60006020820190508181036000830152612c1081612bd4565b9050919050565b7f4552433732313a207472616e736665722066726f6d20696e636f72726563742060008201527f6f776e6572000000000000000000000000000000000000000000000000000000602082015250565b6000612c73602583611e96565b9150612c7e82612c17565b604082019050919050565b60006020820190508181036000830152612ca281612c66565b9050919050565b7f4552433732313a207472616e7366657220746f20746865207a65726f2061646460008201527f7265737300000000000000000000000000000000000000000000000000000000602082015250565b6000612d05602483611e96565b9150612d1082612ca9565b604082019050919050565b60006020820190508181036000830152612d3481612cf8565b9050919050565b6000612d4682611f46565b9150612d5183611f46565b925082821015612d6457612d63612933565b5b828203905092915050565b7f4552433732313a20617070726f766520746f2063616c6c657200000000000000600082015250565b6000612da5601983611e96565b9150612db082612d6f565b602082019050919050565b60006020820190508181036000830152612dd481612d98565b9050919050565b7f4552433732313a207472616e7366657220746f206e6f6e20455243373231526560008201527f63656976657220696d706c656d656e7465720000000000000000000000000000602082015250565b6000612e37603283611e96565b9150612e4282612ddb565b604082019050919050565b60006020820190508181036000830152612e6681612e2a565b9050919050565b7f4552433732313a206d696e7420746f20746865207a65726f2061646472657373600082015250565b6000612ea3602083611e96565b9150612eae82612e6d565b602082019050919050565b60006020820190508181036000830152612ed281612e96565b9050919050565b7f4552433732313a20746f6b656e20616c7265616479206d696e74656400000000600082015250565b6000612f0f601c83611e96565b9150612f1a82612ed9565b602082019050919050565b60006020820190508181036000830152612f3e81612f02565b9050919050565b7f4e487b7100000000000000000000000000000000000000000000000000000000600052601260045260246000fd5b6000612f7f82611f46565b9150612f8a83611f46565b925082612f9a57612f99612f45565b5b828204905092915050565b6000612fb082611f46565b9150612fbb83611f46565b925082612fcb57612fca612f45565b5b828206905092915050565b7f4e487b7100000000000000000000000000000000000000000000000000000000600052603260045260246000fd5b600081519050919050565b600082825260208201905092915050565b600061302c82613005565b6130368185613010565b9350613046818560208601611ea7565b61304f81611eda565b840191505092915050565b600060808201905061306f6000830187611fdb565b61307c6020830186611fdb565b61308960408301856120b1565b818103606083015261309b8184613021565b905095945050505050565b6000815190506130b581611dfc565b92915050565b6000602082840312156130d1576130d0611dc6565b5b60006130df848285016130a6565b9150509291505056fea26469706673582212204a5681dd732e23f5b09cf6a7992c39aab6919c585070e9cb58391cffcb98356764736f6c63430008080033",
  "devdoc": {
    "kind": "dev",
    "methods": {},
    "version": 1
  },
  "userdoc": {
    "kind": "user",
    "methods": {},
    "version": 1
  },
  "storageLayout": {
    "storage": [
      {
        "astId": 2882,
        "contract": "contracts/RaffleFactory.sol:RaffleFactory",
        "label": "raffles",
        "offset": 0,
        "slot": "0",
        "type": "t_mapping(t_uint256,t_address)"
      },
      {
        "astId": 2885,
        "contract": "contracts/RaffleFactory.sol:RaffleFactory",
        "label": "raffleId",
        "offset": 0,
        "slot": "1",
        "type": "t_uint256"
      }
    ],
    "types": {
      "t_address": {
        "encoding": "inplace",
        "label": "address",
        "numberOfBytes": "20"
      },
      "t_mapping(t_uint256,t_address)": {
        "encoding": "mapping",
        "key": "t_uint256",
        "label": "mapping(uint256 => address)",
        "numberOfBytes": "32",
        "value": "t_address"
      },
      "t_uint256": {
        "encoding": "inplace",
        "label": "uint256",
        "numberOfBytes": "32"
      }
    }
  }
}